:020000040800F2
:10000000C092002091020008990200089B0200089B
:100010009D0200089F020008A102000800000000E5
:10002000000000000000000000000000D1020008F5
:10003000A5020008000000006B0300087B03000815
:10004000AB020008AB020008AB020008AB020008DC
:10005000AB020008AB020008AB020008AB020008CC
:10006000AB020008AB020008AB020008AB020008BC
:10007000AB020008AB020008AB020008AB020008AC
:10008000AB020008AB020008AB020008AB0200089C
:10009000AB020008AB020008AB020008AB0200088C
:1000A000AB020008AB020008AB020008AB0200087C
:1000B000AB020008AB020008AB020008AB0200086C
:1000C000AB020008AB020008AB020008AB0200085C
:1000D000AB02000839530008AB020008AB0200086D
:1000E000AB020008AB020008AB020008AB0200083C
:1000F000AB020008AB020008AB020008AB0200082C
:10010000AB020008AB020008AB020008AB0200081B
:10011000AB020008AB020008AB020008AB0200080B
:10012000AB020008AB020008AB020008AB020008FB
:10013000AB020008AB020008AB020008AB020008EB
:10014000AB020008AB020008AB020008AB020008DB
:10015000AB020008AB020008AB020008AB020008CB
:10016000AB020008AB020008AB020008AB020008BB
:10017000AB020008AB020008000000000000000015
:10018000AB020008AB02000800F002F800F06CF8C7
:100190000AA090E8000C82448344AAF10107DA45E2
:1001A00001D100F061F8AFF2090EBAE80F0013F0C8
:1001B000010F18BFFB1A43F001031847AC460100BA
:1001C000CC4601000A444FF0000C10F8013B13F03C
:1001D000070408BF10F8014B1D1108BF10F8015BA0
:1001E000641E05D010F8016B641E01F8016BF9D193
:1001F00013F0080F1EBF10F8014BAD1C0C1B09D1EA
:100200006D1E58BF01F801CBFAD505E014F8016B5B
:1002100001F8016B6D1EF9D59142D6D370470000ED
:100220000023002400250026103A28BF78C1FBD8FF
:10023000520728BF30C148BF0B607047662905F0E0
:100240004E87642900F06E81002070471FB505F0CD
:100250003CFF00F005FE04000020002105F07CFAC0
:10026000E0601FBD10B510BD00F00AFF114603B4D9
:1002700005F0F6F803BCFFF7E9FF05F0B9F900F067
:1002800024FF03B4FFF7EEFF03BC05F0EDF8000018
:100290000948804709480047FEE7FEE7FEE7FEE71A
:1002A000FEE7FEE7FEE7FEE7FEE7FEE70448054956
:1002B000054A064B70470000FD4B00088901000805
:1002C000C08C0020C0920020C08E0020C08E002074
:1002D0001EF0040F0CBFEFF30880EFF30980816973
:1002E00011F8021C002932D101B590E80F10E04747
:1002F000BDE800508CE80300244B93E806009142CF
:1003000008BF70471A6041B91EF0100F10D1204B82
:10031000186820F0010018600AE02CE9F00F1EF0C8
:10032000100F08BF2CED108A81F822E0C1F838C008
:10033000906B92F8221061F0FF0E1EF0100F08BFB4
:1003400000F02AB8B0E8F00F80F309887047114A2E
:1003500013689942FAD801B552F821C00FC8E04796
:10036000BDE80050CCF80000704701B501F060FA1C
:10037000BDE80140EFF3098CBEE701B501F0D4FC04
:10038000BDE80140EFF3098CB6E700BFA885002067
:1003900034EF00E0BC460108B0EC088AB0EC08CAB3
:1003A000FFF7D0BF53EA020C00F069802DE9F04B53
:1003B0004FF00006002B1FBFB3FA83F503FA05F4D4
:1003C00024FA05F65E4012BF1643B2FA82F502FA2D
:1003D00005F4C5F120051EBF22FA05FC44EA0C0411
:1003E000203556EA044C4FEA144418BF641C4FF001
:1003F00000084FF00009904271EB030C39D300293B
:1004000019BFB1FA81F701FA07F6B0FA80F700FADE
:1004100007F6C7F120071EBF20FA07FC46EA0C06C4
:100420002037B6FBF4FCA7EB0507103F07F01F0BC6
:10043000CBF120060CFA0BFB2CFA06F644BFB346B0
:100440000026202FA4BF5E464FF0000B5BEA060C8F
:1004500008BF4FF0010B19EB0B09ABFB027C48EB1B
:100460000608C01B06FB02CC0BFB03CC71EB0C0196
:10047000C1E70B46024641464846BDE8F08B13B53E
:100480004FF000004FF00001AFF30080BDE81C40CA
:10049000704700000FB4044910B503AA029800F099
:1004A000CDFC10BC5DF814FB788500200FB41CB5A2
:1004B000074B06AA7B4469460090059800F0A5FC0E
:1004C0000020694600F0B4FC1CBC5DF814FB000081
:1004D0007909000070B5044685690068C10601D538
:1004E000302600E02026C00707D070BDD4E90121E6
:1004F00030469047206A401C20626D1EF6D570BDC4
:1005000070B5044685690078C00707D170BDD4E98D
:10051000012120209047206A401C20626D1EF6D5E4
:1005200070BD00002DE9F0410646002410687529D1
:10053000314616A510D0AFF30080002802DA404201
:1005400013A507E031688A0701D512A502E0490723
:1005500004D511A5012401E0AFF3008000210A2297
:1005600006F1240709E0B0FBF2FCB0FBF2F302FB5A
:100570001C00303078541846491C0028F3D123461B
:100580002A463046BDE8F04100F0CFB90000000037
:100590002D0000002B000000200000002DE9F05F7E
:1005A000894604464FF0000ADFF824B1FB44C0F846
:1005B00020A02046E168884700287DD0252806D065
:1005C000D4E901219047206A401C2062F1E7002510
:1005D0005F462046E16888472028064607DB312E23
:1005E00005D2B81910F8200C08B10543F1E7A807A7
:1005F00001D525F00405C4F81CA00027C4F818A0F4
:100600002A2E09D0304604F0F9FE38B304EB8708EF
:10061000303EC8F8186019E059F8041B204604EB76
:1006200087029161E1688847012F064618D1E06989
:10063000002820DA25F020051DE0D8F8180000EB8E
:10064000800006EB40003038C8F818002046E1680A
:100650008847064604F0D2FE0028EED1012F0AD0CA
:100660002E2E08D12046E16888477F1C0646022FBF
:1006700045F02005C4DBA069002803DA404245F0BC
:100680000105A061E80701D025F01005A6B1A6F18B
:100690004100192802D8203645F400654A46314603
:1006A000204625604D46FFF7C9FD60B1012807D0FF
:1006B000ED1D25F0070000E007E000F1080978E7EC
:1006C00005F1040975E730467AE7206A00F002B8C0
:1006D0005841010030BCBDE8C09F40EA010302461A
:1006E00030B59B0710D14FF0013400E008C208C9B3
:1006F0001D1B9D4315EAC41FF8D013F0FF0102F83B
:10070000011B0DD01B0AF8E711F8013B002B02F882
:10071000013B05D011F8013B002B02F8013BF3D15E
:1007200030BD032A40F2308010F0030C00F0158039
:1007300011F8013BBCF1020F624498BF11F801CBE4
:1007400000F8013B38BF11F8013BA2F1040298BF49
:1007500000F801CB38BF00F8013B11F0030300F0B3
:100760002580083AC0F0088051F8043B083A51F857
:1007700004CBA0E80810F5E7121D5CBF51F8043B5C
:1007800040F8043BAFF30080D20724BF11F8013BCF
:1007900011F801CB48BF11F8012B24BF00F8013B31
:1007A00000F801CB48BF00F8012B704710B5203A84
:1007B000C0F00B80B1E81850203AA0E81850B1E81A
:1007C0001850A0E81850BFF4F5AF5FEA027C24BFD0
:1007D000B1E81850A0E8185044BF18C918C0BDE8C7
:1007E00010405FEA827C24BF51F8043B40F8043B90
:1007F00008BF7047D20728BF31F8023B48BF11F845
:10080000012B28BF20F8023B48BF00F8012B70479E
:100810004FF000020429C0F0128010F0030C00F029
:100820001B80CCF1040CBCF1020F18BF00F8012BA7
:10083000A8BF20F8022BA1EB0C0100F00DB85FEA75
:10084000C17C24BF00F8012B00F8012B48BF00F841
:10085000012B70474FF0000200B5134694469646B0
:10086000203922BFA0E80C50A0E80C50B1F12001C3
:10087000BFF4F7AF090728BFA0E80C5048BF0CC071
:100880005DF804EB890028BF40F8042B08BF7047CF
:1008900048BF20F8022B11F0804F18BF00F8012B41
:1008A000704700004FF0013C50F8042B51F8043B16
:1008B0009A4221D1A2EB0C03934313EACC1317D134
:1008C00050F8042B51F8043B9A4215D1A2EB0C03CB
:1008D000934313EACC130BD150F8042B51F8043B8B
:1008E0009A4209D1A2EB0C03934313EACC13DBD059
:1008F0004FF00000704700BFD01A01BAB1FA81F181
:1009000001F0180122FA01F0CB40C1F12001DBB265
:10091000C0B2C01A2CFA01F3D11A914311EAC311E3
:10092000E6D170477047704770472DE9F0470D4694
:1009300099469246044600F124080168880604D5C9
:10094000E06921F01001216000E00120A84201DDF2
:10095000471B00E00027A1697A1902EB0900081A79
:10096000A0612078C00602D42046FFF7B3FD002620
:1009700008E0D4E901211AF806009047206A401CDB
:10098000761C20624E45F4DB2078C0060AD520464E
:10099000FFF7A0FD06E0D4E9012130209047206A4E
:1009A000401C2062381EA7F10107F4DC07E0D4E9FF
:1009B000012118F805009047206A401C2062281E7B
:1009C000A5F10105F3DC2046FFF79AFD207800062B
:1009D00002D50220BDE8F0870120FBE770472DE932
:1009E000FF4F0C461E464FF0FF378BB0D2E9000197
:1009F000DDF860800A908A46C1F30A5505B93D4684
:100A0000002108464FF00000BAF1000F00F440004A
:100A100005DA00EB80004FF4400101EA50004FEA94
:100A20009059B9F1010F00DDB9460A9850EA4A0021
:100A30000ED044F61050A5F2FF3545432F14B8F1FF
:100A4000000F1ED07542291E1EDDC9F100021CE0F8
:100A5000B8F1010F4FF0000001D0302103E0F24364
:100A600005E02154401CB042FBDB3046002200214F
:100A700021540B99C1F80880C1E900200FB000F0A3
:100A8000BCB9BD1B6D1CDEE74A4600DA694206A808
:100A900000F070FA06AB93E8070003AB83E80700A9
:100AA00050460A9901F04DFF8DE80700A0F500506F
:100AB0001F3800900398002D0ADD42F21F014A46BC
:100AC0000844002303A90390684602F0B6F909E040
:100AD000A0F500504A461F38002303A9039068463A
:100AE00002F0C0F98DE807000004000C03D04FF0BD
:100AF000FF30410800E01046B8F1000F03D000229B
:100B0000009215461EE0751E05D400F0AEF9303295
:100B100062556D1EF9D5B3460122084302D000226A
:100B20007F1C04E02078302801D100227F1E002A9B
:100B3000099784D01DE0112D07DA00F096F93032C4
:100B400062556D1C50EA0102F5D1084302D00098AD
:100B5000C8B10EE00021681E05E0235C625C6354AE
:100B60002254401E491C8142F7DBAB46A81B401EA5
:100B70000990002004F80B000B98099AC0F808802F
:100B8000C0E9002B7AE711264FF0000857E72DE95E
:100B9000F04F88460446D21D22F0070191B0D1E9FA
:100BA0000001CDE90A0104F011FC02460B98C00FC8
:100BB00001D02D2007E02068810701D52B2002E01D
:100BC000202101EAC000032A099001D0072A05DB91
:100BD00003464146204600F08DF90BE1207880065F
:100BE00001D5E06900E00620B8F1650F814606D026
:100BF000B8F1660F18D0B8F1670F70D131E000205E
:100C0000B9F1110F009001DB112301E009F101039B
:100C10000AAA01A90CA8FFF7E2FEDDE90C70002684
:100C200009F10105834647E001204B4600904FF053
:100C300000470AAA01A90CA8FFF7D1FEDDE90DB013
:100C40000C995D46002610B909F101000D18B9EBA9
:100C5000050003D4C0F1FF3609F10105A5EB090039
:100C60002BE0B9F1010F01DA4FF001090020B9F1D1
:100C7000110F0090484601DD112300E003460AAA47
:100C800001A90CA8FFF7ABFEDDE90C704D4600266C
:100C90008346207800070AD4AB4500DA5D4601A8F8
:100CA000012D04DD411911F8011C302907D04F45F1
:100CB00002DA17F1040F04DA012082460FE06D1EFC
:100CC000EEE7002F02DCED1B3E4403E0781CA84257
:100CD00000DD7D1CB81B00F1010A4FF000472078B1
:100CE000000703D4AA4501DB4FF0FF3A0021B7F11A
:100CF000004F0DF143088DF8431024D002202B2320
:100D0000002F01DA7F422D230A21021EA0F10100EB
:100D100000DC5FB197FBF1FC97FBF1F201FB1C7C5F
:100D200017460CF1300C08F801CDEEE7A8F10100F0
:100D300003702188090501D5452100E06521A0F156
:100D4000010800F8011C09980FA9A1EB0807FF1D75
:100D500000B10120411901EBEA70A1693844081A79
:100D6000401EA0612078C00602D42046FFF7B2FBE7
:100D7000099828B1D4E901219047206A401C2062DB
:100D80002078C00622D52046FFF7A4FB1EE0002EE7
:100D900004DBB34502DD01A8805D00E03020D4E92A
:100DA00001219047206A401C2062761CAAF10100B4
:100DB0005FEA000A0AD100F053F8C0680168405C9D
:100DC000D4E901219047206A401C2062281EA5F129
:100DD0000105DCDC07E0D4E9012118F8010B90479C
:100DE000206A401C2062381EA7F10107F3DC204670
:100DF000FFF786FB032011B041E630BCBDE8C08F91
:100E000001694A1C02610878704700B58FB0CDE9CE
:100E100001310021059105497944CDE903101146BE
:100E20006846FFF7BBFB0FB000BD0000E5FFFFFF0A
:100E30000A6802F8010B0A6070470000074B70B5A2
:100E40000D467B44FFF7E1FF0446284600F004F915
:100E500010B14FF0FF3070BD204670BDAF460000AE
:100E600010B500F009F9203010BD30B5B0F10A021C
:100E70004FEA900E71F100034EEA817EB0EB0E0056
:100E800061EB91014FEA101E4EEA017E10EB0E005D
:100E900041EB11114FEA102E4EEA016E10EB0E00DD
:100EA00041EB11214FEA104E4EEA014E10EB0E00BD
:100EB00041EB1141401841F100014FEAD00040EAF6
:100EC00041704FEAD10110EB80054FEA810444EAFA
:100ED000907444EB01046D1944EB0404521BA341CC
:100EE0004FF0000348BF0A3200D530BD401C41F12D
:100EF000000130BD2DE9F0411F460446032601687C
:100F0000072A01F4006004DB08B116A505E016A568
:100F100003E008B115A500E015A521F01000206040
:100F2000A069C01EA0610FB1401EA0612046FFF75E
:100F3000D1FA4FB1D4E9012138469047206A401CCC
:100F40002062C01C206206E0206AFAE7D4E9012191
:100F500015F8010B9047761EF8D22046FFF7D0FA1D
:100F6000BDE8F0814E414E006E616E00494E460074
:100F7000696E66002DE9F047814616468AB035480D
:100F800078440DC88DE80D0032487844801C03ACCD
:100F90000DC884E80D0041F69B300844372190FBD2
:100FA000F1F290FBF1F5A5F1800501FB12041B3C69
:100FB00002D56442012000E00020DFF898A08046BE
:100FC0000027FA44AAF1BE0A0EE0E0070AD0324632
:100FD000684607EB470101230AEB810101F042FF5C
:100FE0008DE8070064107F1C002CEED1194F7F4460
:100FF000AE3F19E0E80715D007EB04100DF1180A11
:1010000090E80E008AE80E00C068F04201D19819FD
:1010100008903246012306A903A801F023FF03AB81
:1010200083E807006D10641C002DE3D14FF001032D
:1010300032466946B8F1000F03A802D001F0FDFE68
:1010400001E001F00FFFC9E90001C9F808200AB06A
:10105000BDE8F0871438010070B5044600F14C0576
:10106000284604F0D2F9207B00F08004284604F0E2
:10107000EEF9204670BD0000004870475C8C0020EF
:101080007546FFF7F9FFAE4605006946534620F066
:101090000700854618B020B5FFF708F9BDE82040E5
:1010A0004FF000064FF000074FF000084FF0000B24
:1010B00021F00701AC46ACE8C009ACE8C009ACE8D7
:1010C000C009ACE8C0098D46704710B50446AFF3BF
:1010D00000802046BDE81040FFF7D3B810B500F1FE
:1010E000280151E8002F12B9BFF32F8F04E0531EDF
:1010F00041E8003404B1F4E772B12C3001210068FA
:1011000050B1821CD2E84F3FC2E8441F04B1F9E756
:101110001A0602D00830F2E7002010BD70B5024672
:1011200052F8305F4DB1CC7800235DB12E46ED789A
:10113000A5420DD275683346F7E70023C162C1E9C5
:1011400001330DE00024C1E9014300F12C0403E068
:10115000C1E9016306F108042160002B18BF1A1DC4
:101160001160283050E8001F4A1C40E8002303B1FA
:10117000F8E770BDD1E9012312B193608B6800E0FC
:10118000C362191D002B08BF00F130010A607047CF
:1011900001480068704700BF10E000E00748017890
:1011A000012905D106494FF080620A6000210170D3
:1011B0000448016841F0010101607047BC8C0020C7
:1011C00004ED00E010E000E04FF0FF307047000059
:1011D00040B10B490968B1FBF0F0411E0020B0EBB3
:1011E000116F02D04FF0FF307047064AFF23137093
:1011F000054A0623136051600449087090607047E7
:101200009085002023ED00E010E000E0BC8C002081
:101210002168D4E90223204600F03FBA00210022D1
:101220000646002700F068BD6FF005007047B0B5B6
:1012300000F10C01C289D1E85F3F9A4202D8BFF3A6
:101240002F8F04E05C1CC1E8554F05B1F3E7C2895C
:1012500099B20020914238BF0120B0BD10B593076C
:1012600012D400F12803D00715D153E8000F08422B
:1012700003D1BFF32F8F002005E020EA010243E8ED
:10128000002404B1F1E710BD806AD20700EA01032F
:1012900012D1A3B912E053E8000F00EA01028A421A
:1012A00003D0BFF32F8F002005E020EA010243E8BE
:1012B000002404B1EFE710BD8B4200D0002010BD28
:1012C000B0B5104A0023443215462C683CB125695C
:1012D000A94209D3491B04F10C052346F5E7002474
:1012E0000161C0E9023406E00161C0E90234A06096
:1012F0002569691A2161002B18BF03F10C021060E7
:10130000B0BD00BF94850020EFF3058129B9EFF34C
:10131000108111B9EFF3118111B16FF00500704721
:10132000DFF804C000DF7047451F0008EFF30580B9
:1013300048B9EFF3108030B9EFF3118018B9EFF32B
:101340001480C00702D10448007A7047DFF804C057
:1013500000DF70475D1F00089485002080B500F015
:10136000E7F8EFF3058028B9EFF3108010B9EFF339
:10137000118010B16FF0050080BDDFF808C000DFFC
:1013800080BD00BF691F0008EFF3058028B9EFF3A7
:10139000108010B9EFF3118008B1FFF745BFDFF8F7
:1013A00008C000DF704700BF69200008F8B5054697
:1013B000EFF3058014460E4628B9EFF3108010B9FC
:1013C000EFF31180F0B1D5B12878FA2817D16FF07A
:1013D0000300EEB1E3B92846FFF780FEC8B16A6AA0
:1013E000074600F10C013046FFF79BF90CB1F87885
:1013F00020703846FD6000F061FA0020F8BD6FF003
:101400000300F8BD2846DFF810C03146224600DF51
:10141000F8BD6FF00200F8BDF12000082DE9F041A1
:101420000646EFF3058090460D4628B9EFF310808D
:1014300010B9EFF3118018B3EEB13078FA281AD151
:101440006FF00307CDB1C3B906F10C0000F0E3F86B
:10145000F0B1726A04460C302946FFF762F9F920B0
:101460000027C4E9015684F8038020702046A77045
:1014700000F024FA01E06FF003073846BDE8F08180
:101480003046DFF814C02946424600DFBDE8F0814F
:101490006FF00207F1E700BFE9220008EFF30582D1
:1014A0002AB9EFF3108212B9EFF3118212B16FF083
:1014B00005007047DFF804C000DF70479D23000877
:1014C000EFF3058129B9EFF3108111B9EFF3118121
:1014D00011B16FF005007047DFF804C000DF7047FE
:1014E0002D240008EFF3058129B9EFF3108111B91C
:1014F000EFF3118109B100207047DFF808C000DF69
:10150000704700BFDD240008EFF3058129B9EFF330
:10151000108111B9EFF3118111B16FF0050070471F
:10152000DFF804C000DF70474525000804F072B8FA
:101530007047F0B5A8B1002379B3032A2DD803462C
:101540000F3153F8085F21F007012C46EE1A5D6851
:1015500025F00307F61B8E4205D225682346002D91
:10156000F3D1002319E0D0E900760E4446603844F8
:1015700050F8047CB74202D2083846605D6845B135
:1015800025F003001143C45018441860034641601D
:1015900002E041EA0200586008331846F0BDB0B5D9
:1015A00060B159B100F10804A1F10802002394428E
:1015B00006D0254624682B46002CF8D10020B0BD6B
:1015C00051F8045C446825F00305641B446013B1C2
:1015D0001068186002E0002041F8040C0120B0BD42
:1015E00018B102460843400701D000207047002090
:1015F00018290FD310B58B18A3F10804946043F891
:10160000080C10249368C2E900145C60D0600120CB
:10161000BDE81040704710B5002817D0014600F112
:10162000140252E8000F10B9BFF32F8F04E00368D3
:1016300042E8003404B1F4E740B1043151E8002F2E
:10164000531C41E8003404B1F8E710BD002010BD80
:10165000B0B500281ED0C2688A421BD802698A42EF
:1016600018D900F1140213680B60BFF35F8F52E8C2
:10167000003F0C689C42F6D142E8001505B1F2E744
:10168000043050E8001F4A1E40E8002303B1F8E789
:101690000020B0BD6FF00300B0BDB0B598B191B1FE
:1016A0008AB1044600209BB1C4E9001004F108008F
:1016B00002FB013563612CC0481E30B19918013816
:1016C00019600B46F9E70020B0BD0020186001202A
:1016D000B0BDF8B50446807848B3E5682146284691
:1016E000FFF748FD002005F10C062146207030462A
:1016F000FFF7AEFFA868C8B13046FFF78CFFA8B16E
:101700000446284600F049FAFFF788FD304600F00D
:10171000A5FA81686A6A064604F10C00FFF701F831
:10172000F920A7702070F068E07021E0F8BDA5688E
:10173000A868E8B1407883281AD1284600F02DFA2D
:10174000FFF76CFD304600F089FA064680686A6A49
:1017500004F10C01FEF7E5FFF06808B1E1780170D3
:10176000277005F10C002146BDE8F840FFF770BF77
:1017700028462146BDE8F840FFF7D0BC80B50748B1
:101780000821D0E91A2000F01FFD0549C864002196
:10179000002808BF4FF0FF31084680BDB047010860
:1017A000948500202DE9F041044600274FF0010800
:1017B000D4B125466469E8780007F9D5A8682F7682
:1017C0000028F5D0284600F0E8F90021002206465E
:1017D00000F092FAF06AC5E90367686100B105613B
:1017E00085F81880F562E3E7BDE8F081B0B5C2780E
:1017F000920715D5C068C36A90F821209C688C4276
:1018000008BF8C682CB194F9204055B2AC42C8BFD7
:10181000E2B25B69002BF1D190F82010914200D127
:10182000B0BD80F82020BDE8B04000F0E5B9000070
:1018300070B5214C04F1560504F15A06B4F8540071
:10184000D5E85F1F11B9BFF32F8F04E04A1EC5E82A
:10185000532F03B1F4E7090429D0D6E85F1F4A1CCF
:10186000904200D80022C6E8532F03B1F5E788B2B2
:10187000E16D51F82000D0B10178F1390829DDD8A7
:10188000DFE801F006050905050C0F051200D5E794
:10189000216E8847D2E7616E8847CFE7A16E8847FF
:1018A000CCE7E16E8847C9E7216F8847C6E700208B
:1018B000BDE8704000F00CB99485002070B5014679
:1018C000194800F15603B0F85420D3E85F4FA24204
:1018D00002D8BFF32F8F04E0651CC3E8565F06B142
:1018E000F3E7A3B2934214D200F15803D3E85F4F59
:1018F000651CAA4200D80025C3E8565F06B1F5E78B
:10190000A2B2C36D43F82210417A39B1012181722C
:1019100070BD0220BDE87040FFF708BE03484FF0DD
:101920008051016070BD00BF9485002004ED00E08F
:1019300010B58168B1B100F10C01D1E85F2F12B987
:10194000BFF32F8F04E0531EC1E8543F04B1F4E706
:10195000110407D000F021F900210022BDE8104059
:1019600000F0CAB910BD000010B5012190F9203077
:1019700041700A491C310A46896841B191F92040F9
:101980009C42F8DCC0E9021290600C3104E00021B6
:10199000C0E9021202F10801086010BD9485002020
:1019A000B0B54A1C0DD01D4A00232C3215462C68B8
:1019B000E4B1E569A94221D3491B04F1100523468E
:1019C000F5E71649002301F1300214461946236851
:1019D00003F11004002BF9D14FF0FF33C361002352
:1019E000C0E90431C1B101F1100215E0C161C0E9E3
:1019F0000443002B18BF03F110020DE0002BC0E9D7
:101A00000443C16118BF03F1100210602CB1E269F8
:101A1000511A04F11402E1611060B0BD94850020F8
:101A2000C2690169531C0AD021B143694B61CB697A
:101A30001A44CA6142693AB9084AD16207E009B159
:101A400042694A6142692AB1002311614361002160
:101A5000C1617047014A1163F9E700BF9485002016
:101A600070B5114DEC6A1CB1E0690138E06100D03D
:101A700070BD042660781338B6EB301F05D12046C0
:101A800000F0B4F82146FFF7B1FE204600F0A4F8BC
:101A9000204600F0D9F8246924B1E0690028E9D093
:101AA00000206061EC6270BD94850020C178C90798
:101AB00008BF00F037B80021C1600421417003491C
:101AC0004A6B826002B1D060486370479485002001
:101AD00070B5134E05467469307A65B1022805D198
:101AE00094F9200095F92010814211DC2846BDE8C8
:101AF000704000F0A9B8022810D1756A75B194F948
:101B0000200095F92010814208DD284600F064F895
:101B10002046FFF729FF0220B561687070BD00BF45
:101B20009485002010B5044600202080A07881070D
:101B30000DD5C00605D41048216B406FFFF72FFD6F
:101B400005E00D48216BD0F88400FFF781FDA078F7
:101B5000C00708BF10BD0849D1F8880020B1214650
:101B6000BDE81040FFF774BDD1F880002146BDE804
:101B70001040FFF714BD00BF9485002010B5044647
:101B8000806918B10021002200F0B6F8607823289F
:101B900002D1A0680021816110BD01468068826881
:101BA0008A6002B1D1600021C160704710B591F91F
:101BB00020300246806840B190F920409C42F8DA1B
:101BC000C1E9020291600C3004E00020C1E9020288
:101BD00002F10800016010BDC16831B182688A60FD
:101BE000826802B1D1600021C16070470178F1299B
:101BF00018BF7047C068F9E7B0B50446054625B17F
:101C00002878F12802D1ED68F9E7B0BD2046FFF74A
:101C1000E3FF28462146BDE8B040FFF7C7BF10B537
:101C20000446407833280DD194F82320616A204679
:101C3000FFF714FB30B1014620460022BDE81040FA
:101C400000F05AB810BD000001460120487002485B
:101C50001C30FFF7ABBF00BF9485002090F8221026
:101C6000C9064FF0200158BF6021806B08447047BF
:101C700070B50B4C0B480021A26D666E00F068FD3C
:101C8000094DA86246B1B04740B9E96CD4E91720C4
:101C900000F05EFDA86408B1012070BD002070BD99
:101CA000B047010835560008948500200249886134
:101CB00002214170704700BF9485002010B50D4C83
:101CC000227A022A14D1626A92B162695070104677
:101CD000FFF766FE606A8168616211B104F11C025F
:101CE000CA600221A06141700021C160012010BDC5
:101CF000002010BD94850020B0B5044690F8220065
:101D00001546C0064FF0200058BF6020A26B8150DE
:101D10002046FFF785FE2046002DBDE8B04008BFF5
:101D2000FFF792BFFFF7D4BEB0B5FFF731FA1B4DF6
:101D3000E8680130E860FFF793FE0020FFF7C8FE77
:101D4000286D00B18047296C71B1A869EA6B904297
:101D500005D0C269E86322B9C1610A4601E0C269DF
:101D60001AB1511EC16100D0B0BD297A0229FBD140
:101D70006C6A002CF8D090F8200094F82010814272
:101D8000F2D12046FFF728FFE86BFFF75DFF204602
:101D9000FFF78CFF286CEC63E061B0BD94850020F8
:101DA00080B5FFF7EBFC10B14FF0FF3080BD02486B
:101DB00002490165002080BD94850020E11D0008D6
:101DC00082B004466D462046294600224FF0FF337C
:101DD000FFF7ECFA0028F6D1DDE900108847F2E7BA
:101DE0002DE9F041194D6C6C74B320696E694FF0A8
:101DF00001080138206134B3206920BBE06808B1D4
:101E0000A16881606864E86C04F118010022002375
:101E1000FFF704FB60B1D5E9057021466861032036
:101E2000FFF784FB696986EA0700084308BF064696
:101E3000E078012811BF84F8018061692046FFF72E
:101E40003FFA6C6CD7E76E61BDE8F08194850020A5
:101E5000EFF305822AB9EFF3108212B9EFF3118282
:101E6000CAB16FF00302A0B199B90178F62910D177
:101E70000C30D0E85F1F11B9BFF32F8F04E04A1E6A
:101E8000C0E8532F03B1F4E70022080408BF6FF045
:101E9000020210467047DFF808C000DF704700BF3D
:101EA000F9250008EFF305832BB9EFF3108313B97D
:101EB000EFF311830BB100207047DFF808C000DF9B
:101EC000704700BF5126000810B50446EFF30580A7
:101ED00028B9EFF3108010B9EFF3118090B15CB125
:101EE0002078F62808D12046FFF7A1F938B120461E
:101EF000FFF7E4FC002010BD6FF0030010BD6FF091
:101F0000020010BD2046DFF808C000DF10BD00BF92
:101F1000CD260008DFF804C000DFFEE70527000833
:101F2000EFF305832BB9EFF3108313B9EFF31183AC
:101F30000BB100207047DFF808C000DF704700BF1A
:101F40005127000830B180B501461320FFF7B6FED7
:101F5000013880BD6FF00300704700000148007A2F
:101F6000704700BF948500202DE9F843DFF8EC802E
:101F700098F8080028B101286CD04FF0FF30BDE878
:101F8000F883374F388AD7E90B41A8F85400D7E9CE
:101F90000202C8F840002046C8F85C20FFF720FB8A
:101FA00008B1C8F88040D7E90541DFF8B890D7E913
:101FB00007562046C847D8F880100028284618BF82
:101FC0002146C8F874103146C847D8F88010002858
:101FD00018BF2946C8F87810D7E909412046C847F4
:101FE000D8F88010002818BF21467C6BC8F87C10F8
:101FF0001CB1FFF70DF9C8F88440BC6B1CB1FFF7AA
:1020000007F9C8F88840FC6B1CB1FFF701F9C8F864
:102010008C403C6C1CB1FFF7FBF8C8F890407C6C1E
:102020001CB1FFF7F5F8C8F89440BC6C1CB1FFF781
:10203000EFF8C8F89840FC6C1CB1FFF7E9F8C8F855
:102040009C403C6D1CB1FFF7E3F8C8F8A0400120AC
:1020500088F808000020BDE8F88300BF94850020C0
:10206000B0470108E1150008B0B51D4C207A0128E1
:102070001CD1FFF7FDFDC8B11A48FF211A4D81752B
:10208000817D026881F0FF01C2F30222B1FA81F181
:10209000C1F120018A4228BF511CFE2202FA01F13F
:1020A000C17468681149FFF793F810B14FF0FF3021
:1020B000B0BDFFF789F82061FFF770F804F11C004C
:1020C000FFF76BFDFFF7F2FD2878C0070CBF032078
:1020D000022080F31488022020720020B0BD00BFCF
:1020E000948500200CED00E0B04701087B03000858
:1020F0002DE9F04100284AD004460078FA2846D15C
:102100000E46002943D020461D469046FEF7E6FFC6
:10211000002841D0074620463946FFF72BF8626A6F
:1021200007F10C013046FEF7FCFAB8F1000F1CBFB6
:10213000F87888F8000004F10C063946002530468E
:102140003D70FFF785FAA06818B33046FFF763FAD1
:102150000025F0B106462046FFF71FFD00210122B1
:102160000746FFF7C9FD3846FFF778FD8168626AC8
:10217000074606F10C00FEF7D4FAF9203146B57097
:102180003070F868F0702046FEF7C8FF01E06FF08D
:1021900003052846BDE8F08185B183202946FFF775
:1021A0008DFD40B1074841692046FFF7FFFCEFF382
:1021B0000980C0E902686FF00105EAE76FF00205E7
:1021C000E7E700BF948500202DE9F84F48B10D46A0
:1021D00039B10446B0FA80F0B5FA85F108442028F8
:1021E00003D20026304600F07BB805F10F0020F046
:1021F000030808FB04F95AB19668D2F800A0D2E9A6
:1022000004707EB1B107ECD1D1683429E9D30CE078
:102210004FF0000A00273049D1F8A00058B1FFF76D
:10222000FAF90EE0D1680029DBD157B3B907D8D14C
:102230004845D6D327E0D1F8800034210122FFF7AA
:1022400078F906464FF0010B67BB5EB3CDF800A0EE
:10225000DFF884A049460022DAF87C00FFF769F92C
:10226000074620B138464946FEF7D2FA16E0BBF1E0
:10227000000F12D0DAF8A00050B13146FFF7E8F9AC
:102280000BE00028ADD1002EC5D04FF0000BDBE7EE
:10229000DAF880003146FFF782F90026DDF800A069
:1022A0000BF1020B002E3FF49DAF00202146424669
:1022B0003B4686F802B0C6E90950C6E90B00C6E9FC
:1022C00001A0FA20307006F10C00FFF7E6F9024891
:1022D0000249016786E700BF94850020D3160008F5
:1022E00018BCBDE8E08F00002DE9F04120B30546A1
:1022F0000078FA2820D10E46F1B1A8681F46904612
:10230000F8B1407883281CD12846FFF746FC00210D
:10231000012204460027FFF7EFFC2046FFF79EFC52
:10232000044680686A6A3146FEF7FBF9E06828B126
:1023300080F80080002701E06FF003073846BDE811
:10234000F08105F10C00FFF766F980B16A6A044676
:102350000C303146FEF7E5F9F9200027214684F8D4
:10236000038020702846A770FEF7D8FEE6E787B105
:1023700093203946FFF7A2FC40B10748416928463F
:10238000FFF714FCEFF30980C0E902686FF0010762
:10239000D4E76FF00207D1E79485002070B50446BA
:1023A000214845694DB32CB32078F52822D1207EF1
:1023B00030B30E46E178CA0702D0E268AA422BD0B9
:1023C00066B388070AD5E06895F9201090F92020B7
:1023D0008A4203DA80F82010FFF70EFC53203146C2
:1023E000FFF76CFC18B120462946FFF7DFFB6FF0C2
:1023F000010070BD6FF0030070BD4FF0FF3070BD85
:102400000020C4E90350E86A606100B10461012062
:10241000EC622076002070BDFF2802D16FF0020030
:1024200070BD0130F5E700BF94850020B0B520B342
:1024300004460078F52820D1207EC0B36169E068A9
:1024400009B122690A6100F12C0223691546002BAB
:1024500018BF03F114052960E178890721D590F8A8
:102460002110126862B193682BB193F920304DB2FC
:10247000AB42C8BFD9B21432F3E76FF00300B0BD6E
:1024800090F820208A420CD080F82010FFF7B4FB8F
:1024900007E02046FFF781FB6FF002010022FFF703
:1024A0002BFCA0680028F4D10020FFF711FBA178D5
:1024B00000202070C9070DD00749D1F8940018B149
:1024C0002146FFF7C5F804E0D1F880002146FFF768
:1024D00066F80020B0BD00BF9485002070B550B1F3
:1024E0008468D0E900657CB1A10710D1C1680020E3
:1024F0001C2917D270BD002500261149D1F894007F
:1025000038B1FFF788F80AE0C0680028F5D000204D
:1025100070BDD1F880001C210122FFF70AF80446A3
:1025200058B10120A070F52011216660E57020707F
:1025300004F10800FEF78EF900E00024204670BD8B
:102540009485002070B504462A48406970B154B1A2
:102550002178F52907D1217E11B1E268824209D0A4
:102560006FF0020404E06FF0030401E04FF0FF3469
:10257000204670BD01392176090601D00024F7E715
:10258000616909B122690A6100F12C0223691546CB
:10259000002B18BF03F114052960E17889070FD5D6
:1025A00090F8211012684AB193682BB193F920304A
:1025B0004DB2AB42C8BF19461432F3E780F8201081
:1025C000A06888B12046FFF7E8FA002100220546FE
:1025D0000026FFF791FBE86AC4E90356606100B189
:1025E00004610120EC62207600200024FFF770FADD
:1025F000BEE700BF94850020B0B508B3044600785C
:10260000F6281DD104F10C00D0E85F2F12B9BFF3FA
:102610002F8F04E0531EC0E8553F05B1F4E71004C6
:102620001CBF0020B0BD71B16320FFF747FB20B194
:10263000064841692046FFF7B9FA6FF00100B0BDC6
:102640006FF00300B0BD6FF00200B0BD94850020B4
:1026500070B50C46002198B30546B1EB104F2FD151
:10266000AC4215D84AB19068166870B181070FD195
:10267000D2680021102A15D222E000261149D1F893
:10268000980038B1FEF7C7FF0AE0D0680028F5D0FF
:10269000002115E0D1F8800010210122FEF749FF4A
:1026A00060B1012100228170F621C5818481C0E9D9
:1026B000016201700349044A8A6600E00020014675
:1026C000084670BD948500203119000810B560B12E
:1026D0000178F62909D1816859B1FFF75EFA002126
:1026E00001220024FFF708FB01E06FF003042046FD
:1026F00010BDFEF79CFD0021002808BF6FF002010D
:10270000084610BDB0B5114D287A02281DD1686A5F
:10271000D8B16C69E06AFFF745F82046FFF72EFA5A
:10272000686A8168696211B105F11C02CA60022100
:10273000A86141700021C160EFF30980A063696165
:102740002046BDE8B040FFF7B1B9B0BD9485002088
:102750002DE9FE4F002800F0878005466AB102F19E
:1027600010099668D2E9007399E81003C6B1B00762
:102770007AD1D068442816D276E04FF0010B4FF0A2
:102780001809002300244FF000080027664A02932E
:10279000CDE90017D2F88800A8B1FEF73CFF18E099
:1027A000D068002860D124B160075DD1B8F1000F76
:1027B0005AD0B9F1000F3BD0B9F1010F54DBB9F198
:1027C000380F37DD50E0D2F8800044210122FEF7B7
:1027D000B0FE06464FF0010A0027002C53D1002E10
:1027E00051D0BBF1000F0DD04F485049D0F88400B4
:1027F000D1F8548030B1FEF70EFF60B104460AF103
:10280000100A3EE0484841460022406FFEF791FE24
:1028100008B1044635E01FB14FF0000A00242FE054
:102820004149D1F8880018B33146FEF711FF24E082
:102830004FF01809B8F1000F08D05FEA487013D1C3
:10284000B8F1480F10D3B8F1000F0DD4B8FA88F0E2
:10285000002E4FEA501B3FF499AFCDE900170293C9
:102860004FF0000A0127B8E70026304600F066B8AE
:10287000D1F880003146FEF792FE00244FF0010AA5
:1028800000264AF0020A002EEFD00198182186F89F
:1028900002A070600298F07040F2F110308006F1F2
:1028A0000800FDF7D7FF04EB08010020C6E90C483B
:1028B000FD22009F86F8219086F820904039C6F8C6
:1028C0002300C6F82700C6F82B0086F82F0086F8EC
:1028D0002220C6E90E1516492160144909784907D6
:1028E00015D4B16B00220D2A03D041F82200013229
:1028F000F9E7104A4FF080700F62C8630A48C1E9D7
:102900000D250D4901663046FFF7E2F8ADE76FF09F
:102910001001221D4FF0CC3301EB98010029E0D0CB
:1029200008C20139FAE700BF94850020B0470108CA
:10293000A52E5AE2151F00081F1C00081EBCBDE88A
:10294000E08F5FEA400C08BF91F0000F4FEA8C2344
:102950004FEAC12243EA51514FEA1C5018BF00F51B
:10296000F0404FEA300018BF41F000415FEA6C5C74
:1029700000F02980BCF1FF3F08BF40F08040704765
:10298000130C06BF12044FF0100C4FF0000C130E86
:1029900004BF12020CF1080C130F04BF12010CF15A
:1029A000040C930F04BF92000CF1020CD30F04BF70
:1029B00052000CF1010C11464FF00002A0F11F0073
:1029C000A0EB0C00704711F0004F08BF704731F0CA
:1029D00000413FF4D5AF0B0C06BF09044FF0100CBB
:1029E0004FF0000C0B0E04BF09020CF1080C0B0F8A
:1029F00004BF09010CF1040C8B0F04BF89000CF11A
:102A0000020CCB0F04BF49000CF1010CCCF12003E8
:102A1000A0EB0C0022FA03F302FA0CF241EA0301E4
:102A200000F10100704720F07F4C80EA030023F0A2
:102A30007F47ACEB070303F57C5300F0004003F144
:102A4000FF032DE980494FEA154B09B44FEA1443BF
:102A500025EA0B4E24EA03480FF2042606EB13275F
:102A600049083E785FEA320203FB0667C7F50007B4
:102A700007FB06F64FEA54374FEAD64606F1020640
:102A800007FB066CCCF1005C4FEA1C472CEA074CB4
:102A900007FB06F40CFB06F504EB15464FEA961609
:102AA00034BF00204FF000404FEAD13706FB07FC4F
:102AB0004FEA1C4C0CFB0BF7D21B03FB0CF761EB32
:102AC00007010CFB0EF7B0EB074072EB17420CFB53
:102AD00008F734BFA2EB0742B2EB074261EB1741A4
:102AE0004FEA0C444FEA910706FB07FC4FEA1C4CE7
:102AF0000CFB0BF7B0EBC74072EB573203FB0CF744
:102B000034BFA2EBC742B2EBC74261EB57310CFBBB
:102B10000EF7B0EBC70072EB57720CFB08F734BF2F
:102B2000A2EBC702B2EBC70261EB5771039F4FEAFA
:102B3000816141EA921104EBCC044FEAD1374FEAAC
:102B4000826206FB07FC42EA90124FEA80604FEA7D
:102B50001C4C0CFB0BF7D21B03FB0CF761EB0701C2
:102B60000CFB0EF7B0EB074072EB17420CFB08F7BB
:102B700034BFA2EB0742B2EB074261EB17414FEAC9
:102B80008C554FEA910704EB9C2406FB07FC4FEAA7
:102B90001C4C0CFB0BF7B0EBC74072EB573203FB3E
:102BA0000CF734BFA2EBC742B2EBC74261EB57311F
:102BB0000CFB0EF7B0EBC70072EB57720CFB08F77B
:102BC00034BFA2EBC702B2EBC70261EB577115EB42
:102BD0004C254FEA816141EA92114FEA82624FEA45
:102BE000D13742EA901206FB07FC44F100044FEA99
:102BF00080604FEA1C4C0CFB0BF7D21B03FB0CF75D
:102C000061EB07010CFB0EF7B0EB074072EB1742CC
:102C10000CFB08F734BFA2EB0742B2EB074261EBB3
:102C2000174115EB1C154FEA813141EA92414FEAF9
:102C3000823242EA90424FEA80304FEA0C7644F109
:102C4000000448EA03434EEA0B484FF0000EB2EB93
:102C5000080C71EB030724BF624639464EEB0E0E9B
:102C60004FF0000B0018524149414BEB0B0BB2EBFC
:102C7000080C71EB03077BF1000B24BF6246394659
:102C80004EEB0E0E4FF0000B0018524149414BEB3A
:102C90000B0BB2EB080C71EB03077BF1000B24BFAD
:102CA000624639464EEB0E0E51EA020718BF46F057
:102CB000010616EB0E7655F1000254F1000103D522
:102CC000BDE88901BDE80088BDE88901BDE800488C
:102CD000B619524141EB0101A3F101037047808015
:102CE0007F7E7D7C7B7A7978777676757473727166
:102CF00071706F6E6E6D6C6C6B6A6A69686867661E
:102D000066656464636362616160605F5F5E5E5DAF
:102D10005D5C5C5B5B5A5A59595858575756565523
:102D200055555454535352525251515050504F4F85
:102D30004F4E4E4D4D4D4C4C4C4B4B4B4A4A4A49D5
:102D40004949484848474747474646464545454418
:102D50004444444343434342424242414141002BA5
:102D60009C4630D477002BD01CB54FEA370703B40C
:102D70004FF010004FF01001BAF1000F06D0BCF177
:102D8000000FDCBF40F0080040F008014FF00000E9
:102D90000FBCBDE810400BF1010BBBF1010F08BFE8
:102DA0005FEA170722BF12F1010211F101014FF092
:102DB000004143F1000300F0004043EA0000704787
:102DC000F9D35708D0E746EA064613F1400F4FEA19
:102DD00016461FDD13F1200FDFBF16430A46002100
:102DE00020335B42BED0C3F1200746EA064602FA12
:102DF00007F74FEA164646EA0706C3F1200722FA0C
:102E000003F201FA07F721FA03F14FF0000342EA57
:102E10000702A7E746EA020646EA06464FEA1646D2
:102E200046EA0106BCBF46EA0646360C4FF00003F0
:102E30004FF000024FF0000194E72DE9804C9A46D4
:102E4000934670B491E8380007C831EA400C48BF97
:102E500034EA430C03D5FFF7E6FDFFF780FFF0BC33
:102E6000BDE8008C2DE9804C9A46934670B491E8F9
:102E7000380007C810F0804F08BF13F0804F03D10F
:102E800000F005F8FFF76BFFF0BCBDE8008C20F008
:102E90007F4780EA030023F07F4C07EB0C03A3F588
:102EA0007C5300F00040A3F1FE0392F0000F00F00D
:102EB000B38095F0000F00F077802DE901494FEACB
:102EC00011404FEA144621EA004800FB06FC24EAC0
:102ED000064708FB06F607FB08F800FB07F718EBA8
:102EE00006484CEB164C4FEA124B18EB07484FEADA
:102EF00015464CEB174022EA0B4E0BFB06FC25EA6D
:102F000006470EFB06F607FB0EFE0BFB07F71EEB54
:102F1000064E4CEB164C4FF000061EEB074E4CEBEA
:102F2000174B18EB0B0840F1000018EB0E0B58EB99
:102F3000000840F100008F1A4FF000013CBFC94368
:102F4000661B14BFB5EB040C00213CBFC943F61B44
:102F50004FEA17444EEA8E0E27EA04454FEA1C4713
:102F600004FB07622CEA074C05FB07F70CFB05F690
:102F700004FB0CFC16EB074642EB174216EB0C4623
:102F800042EB1C421BEB060658EB0202414146EAAB
:102F90009E0601D5BDE80189B619524141EB0101F8
:102FA000A3F10103BDE801894FEA14454FEA114737
:102FB00024EA054621EA074C05FB07F406FB07F760
:102FC0000CFB06F105FB0CFC11EB074144EB17442D
:102FD0004FEA124711EB0C4144EB1C4422EA074C28
:102FE00005FB07F206FB07F70CFB06F605FB0CFCDE
:102FF00016EB074642EB174216EB0C4642EB1C451C
:103000006A1854F1000148BF7047B619524141EBAC
:103010000101A3F10103704795F0000F37D04FEA8B
:1030200011424FEA144721EA024624EA074C02FB08
:1030300007F106FB07F70CFB06F402FB0CFC14EB94
:10304000074441EB17414FEA154714EB0C4441EBA1
:103050001C4125EA074C02FB07F506FB07F70CFBB2
:1030600006F602FB0CFC16EB074645EB174516EB84
:103070000C4645EB1C42121951F1000148BF704744
:10308000B619524141EB0101A3F1010370474FEA28
:1030900014454FEA114724EA054621EA074C05FB8F
:1030A00007F106FB07F70CFB06F24FF0000605FBE5
:1030B0000CFC12EB074241EB174112EB0C4251EBB7
:1030C0001C4148BF7047921841EB0101A3F1010375
:1030D000704738B50020009000F0F2FE02226946E9
:1030E000A82000F0EFF804460CB1012038BD4FF4E1
:1030F0009670FEF709F908208DF8000000208DF881
:10310000010002226946E12000F0DCF804460CB11F
:103110000120EBE74FF49670FEF7F6F80020E5E7A4
:1031200070B505460E4600F0ABFF712000F06EFF53
:1031300000F0FAFF18B100F0CDFF012070BD0024AF
:103140000DE0701EA04204D1002000F029FF285598
:1031500003E0012000F024FF2855601CC4B2B442F3
:10316000EFDB00F0B7FF0020E8E7000010B52DED21
:10317000088B84B0002400200390022203A9AC2015
:1031800000F0A0F804462CB1B7EE000A04B0BDEC84
:10319000088B10BD062101A8FFF7C2FF044614B139
:1031A000B7EE000AF2E79DF8051009039DF8062026
:1031B00041EA02119DF8072002F0F00241EA020004
:1031C00002F012FD41EC1B0B9FED0B0B53EC102B8F
:1031D00002F022FD41EC1A0B9FED090B53EC102B72
:1031E00002F0AAFB41EC190B02F0CCFA08EE100A2F
:1031F000B0EE480ACAE70000000000000000594095
:10320000000000000000304110B52DED0A8B84B0A5
:10321000002400200390022203A9AC2000F052F801
:1032200004462CB1B7EE000A04B000F045B810BD5A
:10323000062101A8FFF774FF044614B1B7EE000A97
:10324000F2E79DF807100907090B9DF8082041EAED
:1032500002219DF8092041EA020002F0C5FC41EC80
:103260001C0B9FED0F0B53EC102B02F0D5FC41EC27
:103270001B0B9FED0D0B53EC102B02F05DFB41EC93
:103280001A0B9FED0B0B53EC102B02F0C3FD41EC1E
:10329000190B02F077FA08EE100AB0EE480AC3E7FD
:1032A0000000000000006940000000000000304104
:1032B0000000000000004940BDEC088BBDEC02CBD3
:1032C000FFF7B5BF2DE9F04107460D46164600F061
:1032D000D7FE702000F09AFE00F026FF20B100F02B
:1032E000F9FE0120BDE8F081384600F08FFE00F0C5
:1032F0001BFF002406E0285D00F088FE00F014FFAC
:10330000601CC4B2B442F6DB00F0E4FE0020E9E742
:1033100010B504462CB101220421054800F042F901
:1033200004E000220421024800F03CF910BD000036
:103330000004004800B587B000BF0F48C06C40F0E3
:1033400002000D49C8640846C06C00F002000190FC
:1033500000BF00BF042002900120039002200490CF
:10336000059002A9054800F013F800220421034843
:1033700000F018F907B000BD00100240000400483A
:1033800010B500F01BF901F01BFB01F00DFB10BDA7
:1033900078B503460022E5E0012696400D6805EA6F
:1033A0000604002C7DD04D68022D02D04D68122DF0
:1033B00013D1D60803F1200555F826005507EE0E67
:1033C0000F25B540A8435607F60E0D69B5402843B2
:1033D000D60803F1200545F8260018685600032595
:1033E000B540A8430D7905F003055600B5402843C4
:1033F00018604D68012D08D04D68022D05D04D682C
:10340000112D02D04D68122D13D198685600032556
:10341000B540A8435600CD68B54028439860586829
:1034200001259540A8430D79C5F300159540284323
:1034300058600D7905F00305032D09D1D86A0125DF
:103440009540A8430D79C5F3C00595402843D8623F
:10345000D86856000325B540A84356008D68B5408E
:103460002843D8604D6805F08055B5F1805F78D16C
:1034700000BF3F4D2D6E45F001053D4E356635468A
:103480002D6E05F00105009500BF00BF4FEAB6356F
:10349000960855F8260095072E0F0F25B540A8432E
:1034A00000E05EE0B3F1904F01D100251EE0314D08
:1034B000AB4201D1012519E02F4DAB4201D10225CC
:1034C00014E02E4DAB4201D103250FE02C4DAB4251
:1034D00001D104250AE02B4DAB4201D1052505E0C1
:1034E000294DAB4201D1062500E007259607360F8E
:1034F000B5402843254D960845F82600244D2868F8
:10350000A0434D6805F48035B5F5803F00D12043D8
:103510001F4D28602D1D2868A0434D6805F4003517
:10352000B5F5003F00D12043194D2D1D28602D1DFC
:103530002868A0434D6805F48015B5F5801F00D1BB
:103540002043134D083528602D1D2868A0434D6881
:1035500005F40015B5F5001F00D120430C4D0C35C6
:103560002860521C0D68D540002D7FF415AF78BD42
:10357000001002400004004800080048000C004809
:1035800000100048001400480018004808000140DE
:1035900000040140024613690B400BB1012000E01A
:1035A000002070470AB1816100E08162704700002D
:1035B00001480068704700006C85002010B50024A9
:1035C000032000F073F80F2000F008F808B1012480
:1035D00001E000F01BF8204610BD000070B5044665
:1035E0000025094800684FF47A71B0FBF1F63046C7
:1035F00000F014FB08B1012504E000222146501E12
:1036000000F012F8284670BD90850020704700BF7A
:1036100000F01F02012191404209920002F1E022D4
:10362000C2F8001100BF70472DE9F05F80460D46DB
:103630001646002701F09CF9074639462A463346CC
:1036400001F00700C0F1070ABAF1040F02D94FF0E8
:10365000040A01E0C0F1070AD14600F1040ABAF1F8
:10366000070F02D24FF0000A01E0A0F1030AD4468E
:103670004FF0010A0AFA09FAAAF1010A0AEA020A53
:103680000AFA0CFA4FF0010B0BFA0CFBABF1010B31
:103690000BEA030B4AEA0B042146404601F070F99D
:1036A00000F000B830BCBDE8C09F000000BF00F0D3
:1036B0000702064B19684FF6FF031940044B0B43F2
:1036C00043EA0221014B196000BF70470CED00E096
:1036D0000000FA050148006870470000908500204E
:1036E00000B5FFF7F7FF05498968C1F30221044AD5
:1036F000515C01F01F01C84000BD000000100240F5
:10370000D046010800B5FFF7E5FF05498968C1F318
:10371000C221044A515C01F01F01C84000BD0000F5
:1037200000100240D04601082DE9F041002400209D
:10373000DFF800C1DCF808C00CF00C01DFF8F4C0C1
:10374000DCF80CC00CF0030719B10C291ED1012FB5
:103750001CD1DFF8E0C0DCF800C00CF0080CBCF1B4
:10376000000F06D1DFF8CCC0DCF894C0CCF3032402
:1037700005E0DFF8C0C0DCF800C0CCF30314DFF8CC
:10378000B8C05CF8244041B9204606E0042901D1C4
:103790002A4802E0082900D129480C2947D1DFF83E
:1037A00094C0DCF80CC00CF00305DFF888C0DCF82E
:1037B0000CC0CCF3021C0CF10103012D1FD0022D13
:1037C00002D0032D1AD10CE0DFF870C0BCFBF3FC73
:1037D000DFF86080D8F80C80C8F306280CFB08F2EC
:1037E00018E0DFF85CC0BCFBF3FCDFF84880D8F8D9
:1037F0000C80C8F306280CFB08F20BE000BFB4FBFA
:10380000F3FCDFF83080D8F80C80C8F306280CFBF6
:1038100008F200BF00BFDFF81CC0DCF80CC0CCF31E
:10382000416C0CF1010C4FEA4C06B2FBF6F0BDE81E
:10383000F081000000100240D84601080024F40086
:1038400000127A0070B504460CB9012070BD606AA0
:1038500000B900BFA06AB0F5005F00D100BF94F8C6
:103860005D0028B9002084F85C00204600F05EF876
:10387000022084F85D002068006820F04000216884
:103880000860E068B0F5E06F01D9002501E04FF471
:103890008055E068B0F5706F05D0E068B0F5E06F76
:1038A00001D00021A162206B40B9E068B0F5E06F63
:1038B00002D90221216301E001212163D4E9010140
:1038C00008432169084361690843218B01F40071B1
:1038D0000843E1690843216A0843A16A0843216853
:1038E0000860206B022805D12068006840F4006061
:1038F000216808600421A06901EA1040616A084358
:10390000616B0843E1680843284321684860A06A66
:10391000B0F5005F02D12168E06A086100202066EE
:10392000012084F85D00002090E7000010B586B00B
:1039300004462F49206888422AD100BF2D48C06C18
:1039400040F001002B49C8640846C06C00F001003B
:10395000009000BF00BF00BF0846006E40F48050DA
:1039600008660846006E00F48050009000BF00BF5B
:10397000E020019002200290012003900320049097
:103980000520059001A94FF09040FFF701FD00BF11
:1039900019492068884229D100BF1648C06C40F000
:1039A00002001449C8640846C06C00F00200009090
:1039B00000BF00BF00BF0846806D40F4004088652E
:1039C0000846806D00F40040009000BF00BF282032
:1039D0000190022002900120039003200490062011
:1039E000059001A90548FFF7D3FC00BF06B010BD44
:1039F0000030014000100240003C0040000400483C
:103A00002DE9F84F0446884616461D464FF0000A39
:103A100000BF94F85C00012802D1022000F0FBB83E
:103A2000012084F85C0000BFFFF7C2FD0746B146E5
:103A300094F85D00012802D04FF0020AE1E0B8F1ED
:103A4000000F00D016B94FF0010ADAE0032084F825
:103A50005D0000202066C4F83880A687E6872064D1
:103A6000A4F84400A4F846002065E064A068B0F51E
:103A7000004F05D12068006840F48040216808604C
:103A8000A06AB0F5005F0DD100BF2068006820F487
:103A90000050216808602068006840F400502168E8
:103AA000086000BF2068006800F04000402805D092
:103AB0002068006840F0400021680860E068B0F5C8
:103AC000E06F2FD9606810B1B9F1010F09D1A06B77
:103AD00000882168C860A06B801CA063E08F401E36
:103AE000E0871BE02068806800F0020002280AD10D
:103AF000A06B00882168C860A06B801CA063E08F69
:103B0000401EE0870AE0FFF753FDC01BA84201D327
:103B1000681C00B915B94FF0030A72E0E08F002865
:103B2000E0D14AE0606810B1B9F1010F17D1E08F20
:103B300001280AD9A06B00882168C860A06B801C8E
:103B4000A063E08F801EE08709E0A06B0078216809
:103B50000873A06B401CA063E08F401EE08729E043
:103B60002068806800F00200022818D1E08F012848
:103B70000AD9A06B00882168C860A06B801CA06374
:103B8000E08F801EE08715E0A06B00782168087345
:103B9000A06B401CA063E08F401EE0870AE0FFF7A7
:103BA00007FDC01BA84201D3681C00B915B94FF02E
:103BB000030A26E0E08F0028D2D1A06AB0F5005FAA
:103BC00005D12068006840F48050216808603A46BA
:103BD0002946204600F036FF08B120202066A06864
:103BE00050B900BF002000902068C0680090206895
:103BF0008068009000BF00BF206E08B14FF0010A3E
:103C000000BF012084F85D0000BF002084F85C0044
:103C100000BF504602E718BCBDE8E08F70B504460F
:103C20002546681EB0F1807F01D301200FE0681E99
:103C30004FF0E02148610F214FF0FF3000F0A0FE6F
:103C400000204FF0E021886107200861002070BD4E
:103C500010B504460CB9012010BDA06900B100E008
:103C600000BF94F8710028B9002084F87000204645
:103C700000F02AF8242084F871002068006820F001
:103C8000010021680860204601F0D6F8012800D123
:103C9000E2E7606A10B1204601F018F82068406839
:103CA00020F49040216848602068806820F02A0055
:103CB000216888602068006840F001002168086081
:103CC000204601F07FF8C7E710B586B004461C49CE
:103CD0002068884231D100BF1A48C06C40F0010012
:103CE0001849C8640846C06C00F00100009000BF8D
:103CF00000BF00BF0846006E40F4804008660846DA
:103D0000006E00F48040009000BF00BF4815019095
:103D100002200290012003900220049007200590C9
:103D200001A94FF09040FFF733FB4FF48060019002
:103D300001A94FF09040FFF72BFB06B010BD00002B
:103D400000380140001002402DE9F84F04460D46AE
:103D5000164699464FF0000A94F87200202879D14F
:103D600005B116B9012000F077B800BF94F87000D3
:103D7000012801D10220F6E7012084F8700000BF7D
:103D800000205834E0612220A076FFF711FC824623
:103D900026806680583C00BFA068B0F5805F0AD1DD
:103DA000206920B940F2FF10A4F85C001CE0FF205D
:103DB000A4F85C0018E0A06848B9206918B9FF2091
:103DC000A4F85C0010E07F20A4F85C000CE0A06880
:103DD000B0F1805F08D1206918B97F20A4F85C0099
:103DE00002E03F20A4F85C0000BFB4F85C7023E060
:103DF0005346002220212046CDF8009001F065FABC
:103E000008B10320AFE7A068B0F5805F09D1206951
:103E100038B9A8462068808C3840A8F80000AD1C4E
:103E200005E02068808CF9B2084005F8010BB4F871
:103E30005A00401EA4F85A00B4F85A000028D7D1FE
:103E4000202084F8720000BF002084F8700000BFBA
:103E500089E7FFE7022086E718BCBDE8E08F000095
:103E600010B5002240211148FFF79CFB1048006864
:103E700020F00C000E4908600846006840F004007D
:103E80000860002202210A48FFF78CFB00F012F8BC
:103E9000012240210548FFF785FB00F00BF80022C6
:103EA00040210248FFF77EFB10BD0000000C0048D7
:103EB0000008004810B50120FDF726FA10BD0000EB
:103EC00000B587B000BF1E48C06C40F004001C491C
:103ED000C8640846C06C00F00400019000BF00BF39
:103EE00000BF0846C06C40F00800C8640846C06CBB
:103EF00000F00800019000BF00BF022002900120E6
:103F0000039004900220059002A90E48FFF740FAA2
:103F1000402002900120039004900220059002A905
:103F20000948FFF735FA012202210648FFF73AFB5C
:103F3000012240210448FFF735FB07B000BD000017
:103F40000010024000080048000C004810B5002294
:103F500040211148FFF726FB1048006820F00C00B4
:103F60000E4908600846006840F00400086001221D
:103F700002210A48FFF716FBFFF79CFF01224021B0
:103F80000548FFF70FFBFFF795FF0022402102488D
:103F9000FFF708FB10BD0000000C004800080048B7
:103FA00070B5054600241748006820F00C0015493C
:103FB0000860084600680860002618E000224021DA
:103FC0001148FFF7EFFAFFF775FF012240210E4875
:103FD000FFF7E8FA6006040E02210A48FFF7DAFA52
:103FE00008B1601CC4B2FFF765FF701CC6B2082E92
:103FF000E4DB15B9FFF7AAFF01E0FFF731FF204628
:1040000070BD000000080048000C004870B5044670
:104010001948006820F00C0017490860084600683D
:1040200040F004000860002240211448FFF7BAFA6B
:1040300000251EE0E00928B1012202210E48FFF709
:10404000B1FA04E0002202210B48FFF7ABFA600648
:10405000040E012240210948FFF7A4FAFFF72AFFC6
:10406000002240210548FFF79DFAFFF723FF681C57
:10407000C5B2082DDEDB70BD00080048000C00480A
:1040800010B51248006820F00C001049086008467E
:10409000006840F004000860012202210B48FFF78D
:1040A00081FA012240210A48FFF77CFAFFF702FF5C
:1040B000002202210548FFF775FAFFF7FBFE0022F8
:1040C00040210348FFF76EFA10BD000000080048C9
:1040D000000C004810B51248006820F00C00104990
:1040E00008600846006840F00400086000220221D1
:1040F0000B48FFF757FA012240210A48FFF752FA0E
:10410000FFF7D8FE012202210548FFF74BFAFFF71F
:10411000D1FE002240210348FFF744FA10BD000001
:1041200000080048000C004810B50024164800683C
:1041300020F00C001449086008460068086001225D
:1041400002211148FFF72EFAFFF7B4FE01224021A9
:104150000E48FFF727FAFFF7ADFE08E0601C84B2B7
:10416000B4F57A7F03DDFFF7B5FF012010BD022112
:104170000548FFF70FFA0028F0D10022402103483C
:10418000FFF710FA0020F1E700080048000C004893
:1041900000B587B000BF1B48C06C40F0040019494F
:1041A000C8640846C06C00F00400019000BF00BF66
:1041B00000BF0846C06C40F00800C8640846C06CE8
:1041C00000F00800019000BF00BF4FF4E0600290D3
:1041D00000200390022004900320059002A90A48C1
:1041E000FFF7D6F84FF40050029000200390012012
:1041F00004900320059002A90448FFF7C9F807B00E
:1042000000BD000000100240000C004800080048FB
:1042100010B53048007800283FD04FF480612E4818
:10422000FFF7B8F990B14FF400712B48FFF7B2F9DE
:1042300060B14FF480712848FFF7ACF930B14FF40A
:1042400000512648FFF7A6F9012826D10A20FDF7DC
:104250005BF800201F4908704FF480611E48FFF78B
:1042600099F908B9012010BD4FF400711A48FFF701
:1042700091F908B90220F6E74FF480711648FFF76C
:1042800089F908B90320EEE74FF400511348FFF70E
:1042900081F901281CD10420E5E74FF480610E4824
:1042A000FFF778F9012813D141020B48FFF772F9A3
:1042B00001280DD101020848FFF76CF9012807D148
:1042C00041030648FFF766F910B90120014908705B
:1042D0000020C8E770850020000C00480008004856
:1042E0002DE9F04104460D4616461F462A2000F0EF
:1042F000E5FA201200F0F0FAE0B200F0EDFA301228
:1043000000F0EAFAF0B200F0E7FA2B2000F0D6FA5B
:10431000281200F0E1FAE8B200F0DEFA381200F0FC
:10432000DBFAF8B200F0D8FA2C2000F0C7FABDE8AA
:10433000F0810000F8B505460020009028128DF8A5
:104340000000E8B28DF80100EF231A46002108466C
:10435000FFF7C6FF00240DE09DF800000F4901F8AB
:1043600014009DF80100012101EB44010B4A505457
:10437000601C84B2B4F5107FEEDB012210210848E6
:10438000FFF710F9002606E04FF49061034800F0B3
:1043900033F9701C86B2642EF6DBF8BD3886002037
:1043A0000004004800B587B000BF2848C06C40F04A
:1043B00002002649C8640846C06C00F00200019063
:1043C00000BF00BF00BF0846C06C40F00800C864D2
:1043D0000846C06C00F00800019000BF00BFD0206C
:1043E00002900120039004900220059002A9184831
:1043F000FEF7CEFF0022D0211548FFF7D3F880202A
:10440000029002A91348FEF7C3FF00228021114841
:10441000FFF7C8F8002280210E48FFF7C3F80022FA
:1044200080210B48FFF7BEF8002240210848FFF723
:10443000B9F87820FCF768FF012240210448FFF713
:10444000B1F800F0C7FA07B000BD0000001002404C
:1044500000040048000C004810B5FFF7A3FF7820C7
:10446000FCF752FF112000F029FA7820FCF74CFFEE
:10447000362000F023FA002000F02EFA3A2000F057
:104480001DFA652000F028FAB22000F017FA0C207F
:1044900000F022FA0C2000F01FFA002000F01CFAB5
:1044A000332000F019FA332000F016FAB72000F09C
:1044B00005FA722000F010FABB2000F0FFF93D2051
:1044C00000F00AFAC02000F0F9F92C2000F004FAFC
:1044D000C22000F0F3F9012000F0FEF9C32000F043
:1044E000EDF9192000F0F8F9C42000F0E7F92020D8
:1044F00000F0F2F9C62000F0E1F90F2000F0ECF92D
:10450000D02000F0DBF9A42000F0E6F9A12000F0B3
:10451000E3F9E02000F0D2F9D02000F0DDF904202A
:1045200000F0DAF90D2000F0D7F9112000F0D4F9ED
:10453000132000F0D1F92B2000F0CEF93F2000F03D
:10454000CBF9542000F0C8F94C2000F0C5F9182030
:1045500000F0C2F90D2000F0BFF90B2000F0BCF90B
:104560001F2000F0B9F9232000F0B6F9E12000F097
:10457000A5F9D02000F0B0F9042000F0ADF90C202E
:1045800000F0AAF9112000F0A7F9132000F0A4F917
:104590002C2000F0A1F93F2000F09EF9442000F00B
:1045A0009BF9512000F098F92F2000F095F91F2079
:1045B00000F092F91F2000F08FF9202000F08CF914
:1045C000232000F089F9212000F078F9292000F05B
:1045D00075F9EF231A4600210846FFF781FE4FF6D2
:1045E000FF70FFF7A7FE012280210248FEF7DAFFE5
:1045F00010BD0000000400482DE9F04105460E46BC
:104600004FF6FF70B6FBF0F7002416E0BC420CD169
:104610004FF6FF70B6FBF0F100FB1168C4EB0441EC
:104620004819414600F000FA06E0C4EB044148197D
:104630004FF6FF7100F0F8F9641CBC42E6D9BDE802
:10464000F08100002DE9FE4F82468B4616461C463F
:10465000A6F12000C6B204EBD4714910C1F1F001FB
:10466000514503DBC4F1F001594501DA00F0F2B81D
:1046700004EBD4700AEB6000401E82B20BEB040026
:10468000401E83B2594650460094FFF729FE102C75
:1046900001D0202C4ED12046E31704EB5373DB10DE
:1046A00021464FEAE47C04EB5C7C4FEAEC0CA4EB83
:1046B000CC0CBCF1000F02D04FF0010C01E04FF028
:1046C000000C6344224604EBD27C4FEA6C0C03FBE3
:1046D0000CF303F0FF09002529E0102C04D1574802
:1046E00000EB0610475D07E0202C04D1544800EB96
:1046F000C610475D00E0B9E74FF0000812E007F090
:10470000800018B14F480088029002E04E480088AF
:104710000290029800F0EEF87806070E08F101000A
:1047200000F0FF08B8F1080FE9DB681CC5B24D4581
:10473000D3DB80E00C2C45D12046E31704EB537308
:10474000DB1021464FEAE47C04EB5C7C4FEAEC0C86
:10475000A4EBCC0CBCF1000F02D04FF0010C01E037
:104760004FF0000C6344224604EBD27C4FEA6C0C01
:1047700003FB0CF303F0FF09002520E006EB4600E5
:10478000324901EB8000475D4FF0000812E007F06E
:10479000800018B12B480088029002E02A48008867
:1047A0000290029800F0A6F87806070E08F10100C2
:1047B00000F0FF08B8F1060FE9DB681CC5B24D45F3
:1047C000DCDB38E0182C36D12001C11700EB517129
:1047D000C1F3C70900252CE006EB46001C4901EB9C
:1047E0000010475D284605EBD0714910A5EB41014B
:1047F00011B90820019001E0042001904FF0000859
:1048000012E007F0800018B10E480088029002E024
:104810000D4800880290029800F06CF87806070EA8
:1048200008F1010000F0FF0801988045E9DB681CF1
:10483000C5B24D45D0DB00BF18E7000016FF0008E9
:10484000D61601087285002074850020A2FA00089F
:10485000060501081EBCBDE8E08F2DE9F0470446BF
:104860000D4690469946DDE9086704F0FF0A08EB1B
:1048700004001FFA80F809EB05001FFA80F914E024
:10488000444502DB5446A81985B24D4500DB12E0D1
:104890003A78334629462046FFF7D4FE304606EBE9
:1048A000D07104EB61018CB27F1C38787E2802DC69
:1048B00038782028E4DA00BFBDE8F08701B500228F
:1048C00010210448FEF76EFE01216846FFF794FEB2
:1048D00008BD00000004004801B501221021044871
:1048E000FEF760FE01216846FFF786FE08BD000066
:1048F0000004004838B504460020009020128DF8CE
:104900000000E0B28DF80100012210210348FEF7FB
:1049100049FE02216846FFF76FFE38BD00040048DB
:1049200000B587B000BF1048C06C40F010000E49C1
:10493000C8640846C06C00F01000019000BF00BFC2
:104940004FF46070029001200390049003200590C2
:1049500002A90648FEF71CFD01224FF460710348CE
:10496000FEF720FE07B000BD001002400010004816
:1049700002480068C0F30220704700000CED00E020
:1049800010B5002807DA0A07140E054A00F00F03D5
:104990001B1FD45403E00A07130E024A135410BD20
:1049A00018ED00E000E400E010B5FFF7F1FBFFF7C1
:1049B000B7FFFEF7BFFCFFF74FFDFEF78AFB10BD08
:1049C00010B54FF4E13000F053F900F003F8FFF7B1
:1049D00077FA10BD10B51248124908604FF4827082
:1049E000486000210F4881604FF4E061C1600221FE
:1049F000016101214161490281610021C1610162BE
:104A0000416281620721C162FEF71CFF0548006810
:104A1000006840F0400003490968086010BD0000CC
:104A2000003C0040B88A002070B504460D464FF4A3
:104A30007A732A4621460248FEF7E2FF70BD000065
:104A4000B88A0020F8B504460E46154633460022C3
:104A50004FF4C0512046009500F026F828B1206E92
:104A600040F0200020660320F8BD3346002280215C
:104A70002046009500F06DF828B1206E40F020002F
:104A800020660320F0E7334600224FF4C061204641
:104A9000009500F009F828B1206E40F02000206653
:104AA0000320E1E70020DFE72DE9F04104460E4650
:104AB00017461D46DDF8188044E0B6F5C06F02D1F8
:104AC0000FB92068007B681CD8B3FEF771FDA0EB1E
:104AD0000800A84200D2A5BB2068406820F0E00092
:104AE000216848606068B0F5827F0DD1A068B0F59C
:104AF000004F03D0A068B0F5806F05D12068006832
:104B000020F0400021680860A06AB0F5005F0DD178
:104B100000BF2068006820F4005021680860206809
:104B2000006840F400502168086000BF012084F84C
:104B30005D0000BF002084F85C0000BF0320BDE8DA
:104B4000F081FFE7206880683040B842B5D100208E
:104B5000F5E72DE9F04104460E4617461D46DDF8FF
:104B600018803EE0681CD8B3FEF722FDA0EB0800D9
:104B7000A84200D2A5BB2068406820F0E000216870
:104B800048606068B0F5827F0DD1A068B0F5004F35
:104B900003D0A068B0F5806F05D12068006820F0D0
:104BA000400021680860A06AB0F5005F0DD100BF29
:104BB0002068006820F400502168086020680068C0
:104BC00040F400502168086000BF012084F85D00B7
:104BD00000BF002084F85C0000BF0320BDE8F08126
:104BE000FFE7206880683040B04201D1012000E03A
:104BF0000020B842B6D10020F0E70000104800685D
:104C000040F470000E4908600E48006840F0010052
:104C10000C49086000208860084600680A4908407E
:104C2000084908608814C8600846006820F480209D
:104C3000086000208861C803014980390860704716
:104C400088ED00E000100240FFFFF6EA10B50446D0
:104C50004FF0FF3104480068FDF7FAF80349204699
:104C6000FBF73BFD10BD00007C850020948B0020ED
:104C700010B50446124813490860084644600021F4
:104C80008160C160016181610C214161FEF7E0FF3B
:104C90000C480068006840F020000A490968086074
:104CA0002520FEF7B4FC002211462520FEF7BCFCAF
:104CB000002211460120FDF7F5F80349086010BDF8
:104CC000003801401C8B00207C85002090F82410C7
:104CD00001F0010139B10168496821F40031826AAB
:104CE00011430268516090F8241001F0020102297A
:104CF00007D10168496821F48031C26A1143026812
:104D0000516090F8241001F00401042907D10168D2
:104D1000496821F48021026B11430268516090F8C8
:104D2000241001F00801082907D10168496821F41D
:104D30000041426B11430268516090F8241001F069
:104D40001001102907D10168896821F48051826B14
:104D500011430268916090F8241001F0200120298D
:104D600007D10168896821F40051C26B11430268C0
:104D7000916090F8241001F04001402913D101689E
:104D8000496821F48011026C114302685160016C82
:104D9000B1F5801F07D10168496821F4C001426C58
:104DA00011430268516090F8241001F080018029BD
:104DB00007D10168496821F40021826C114302681F
:104DC0005160704738B50446002500206067FEF743
:104DD000EFFB05462068006800F0080008280CD1A9
:104DE0006FF07E402B4600224FF4001100902046C9
:104DF00000F06BFA08B1032038BD2068006800F0AD
:104E0000040004280CD16FF07E402B4600224FF4A2
:104E100080010090204600F058FA08B10320EBE72B
:104E2000202084F8710084F8720000BF002084F80C
:104E3000700000BF00BFDFE72DE9F84F04464FF0D8
:104E4000000910264FF0000B00250020009082463C
:104E5000F7492068884200D100E000BF2169A068BE
:104E6000084361690843E16940EA01092068006874
:104E7000F049084040EA090021680860206840685D
:104E800020F44050E168084321684860D4F8189045
:104E9000E7492068884202D0206A40EA0909206870
:104EA000806820F4306040EA09002168886000BF13
:104EB000E1492068884216D1E048006800F003000C
:104EC00030B1012808D0022804D0032808D105E019
:104ED000012607E0022605E0042603E0082601E09B
:104EE000102600BF8CE0D6492068884216D1D348EE
:104EF000006800F00C0030B1042808D0082804D065
:104F00000C2808D105E0002607E0022605E004266B
:104F100003E0082601E0102600BF71E0C9492068BF
:104F2000884216D1C548006800F0300030B1102822
:104F300008D0202804D0302808D105E0002607E05A
:104F4000022605E0042603E0082601E0102600BF43
:104F500056E0BD492068884216D1B848006800F084
:104F6000C00030B1402808D0802804D0C02808D123
:104F700005E0002607E0022605E0042603E00826F7
:104F800001E0102600BF3BE0B0492068884219D1FB
:104F9000AA48006800F4407048B1B0F5807F0AD09C
:104FA000B0F5007F05D0B0F5407F08D105E00026C0
:104FB00007E0022605E0042603E0082601E01026AB
:104FC00000BF1DE09A492068884219D19B480068BB
:104FD00000F4406048B1B0F5806F0AD0B0F5006FC2
:104FE00005D0B0F5406F08D105E0002607E00226A5
:104FF00005E0042603E0082601E0102600BF00BFFC
:1050000000BF8B492068884272D1042E10D003DC87
:105010003EB1022E13D108E0082E0DD0102E0ED175
:105020000EE0FEF75DFB82460DE0DFF824A20AE009
:10503000FEF77AFB824606E04FF4004A03E000BF29
:105040000120009000BF00BFBAF1000F0AD06068D5
:1050500000EB4000504503D860680003504502D281
:105060000120009025E1042E2ED003DC3EB1022E5B
:1050700051D118E0082E3CD0102E4CD14CE0FEF758
:105080002FFB4FF48071A0FB0131606840081F18AE
:1050900041F10001D4F804C0624600233846FBF712
:1050A00081F905463BE0D4F804C04FEA5C000021DA
:1050B000684BC71841EB010862460B46384641462B
:1050C000FBF770F905462AE0FEF72EFB4FF48071DE
:1050D000A0FB0130616849085F1840F10001D4F875
:1050E00004C0624600233846FBF75CF9054616E02B
:1050F00022E0D4F804C04FEA5C0000214FF4000322
:10510000C71841EB010862460B4638464146FBF79B
:1051100049F9054603E000BF0120009000BF00BF31
:10512000B5F5407F05D3B5F5801F02D22068C56074
:10513000BFE001200090BCE0E069B0F5004F57D11E
:10514000042E28D005DC4EB1012E11D0022E36D10E
:1051500018E0082E29D0102E31D131E0FEF7C0FA28
:105160004000616800EB5100B0FBF1F085B22AE02D
:10517000FEF7C8FA4000616800EB5100B0FBF1F0A7
:1051800085B220E03449606801EB50006168B0FBF3
:10519000F1F085B217E0FEF7C7FA4000616800EB56
:1051A0005100B0FBF1F085B20DE04FF48031606842
:1051B00001EB50006168B0FBF1F085B203E000BF85
:1051C0000120009000BF00BF102D0ED3B5F5803F29
:1051D0000BD24FF6F07005EA000BC5F342004BEA24
:1051E000000B2068C0F80CB063E00120009060E084
:1051F000042E3CD005DC4EB1012E10D0022E49D138
:105200002CE0082E3CD0102E44D144E0FEF768FA82
:10521000616800EB5100B0FBF1F085B23EE0FEF7B3
:1052200071FA616800EB5100B0FBF1F085B235E036
:1052300000800040F369FFEF003801408810024011
:105240000044004000480040004C00400050004036
:105250000024F400000024F40048E80118496068C4
:1052600001EB50006168B0FBF1F085B216E0FEF78B
:105270005BFA616800EB5100B0FBF1F085B20DE024
:105280004FF40041606801EB50006168B0FBF1F041
:1052900085B203E000BF0120009000BF00BF102DC9
:1052A00005D3B5F5803F02D22068C56001E001203A
:1052B0000090002020666066009800F003B80000AF
:1052C0000024F40018BCBDE8E08F2DE9F04104464D
:1052D0000D4617469846069E21E0701CF8B12EB187
:1052E000FEF766F9A0EB0800B04218D92068006804
:1052F00020F4D070216808602068806820F00100E8
:1053000021688860202084F8710084F8720000BF52
:10531000002084F8700000BF0320BDE8F081206801
:10532000C0692840A84201D1012000E00020B84215
:10533000D3D00020F1E7000010B51E480068C06916
:10534000C0F34010002833D04FF47A7301221A4979
:105350001848FEF7F9FC184800780D280CD11749B9
:10536000086803E00021164A1154401CC828F9DBE4
:105370000121144A116010BD0F4800780A280AD193
:105380001048006838B100200C4908600E480068D9
:10539000FCF79AFDEFE700200A490860064802780A
:1053A000064801680068401C044B186004484254D9
:1053B00000BFE0E71C8B0020808500208485002052
:1053C000948B0020888500207C85002003B4019800
:1053D0004100009850EAC12018BF04204A0D18BFB0
:1053E00040F0010040F2FF72B2EB515F08BF40F0A5
:1053F0000200012808BF052002B0704730380A2893
:1054000001D2012070470020704710B5044600F01B
:1054100013F920B14FF0FF312068FCF73FF810BDC1
:1054200010B504462068FCF74BF810BD70B5044673
:105430000020FCF757F82060206808B1012504E03F
:10544000002521460520FCF771F8284670BD10B5EF
:10545000044600F0F1F810B12068FCF755F810BDD3
:1054600010B5FBF77BFF10BD00BF70470CE0FDF7E8
:10547000CBFE064880ED000AFDF778FE044880ED7B
:10548000000A6420FBF740FFF1E70000548500208C
:105490005885002025E00DE00120FDF739FFFEF7DB
:1054A000B7FE012806D10020FDF732FF47F2305049
:1054B000FBF72AFF0B4890ED000ADFED0B0AB4EE74
:1054C000E00AF1EE10FAE7DC084890ED000ADFEDA3
:1054D000080AB4EEE00AF1EE10FADDDC6420FBF716
:1054E00013FFD8E75885002000008C425485002027
:1054F00000000C4200BF054A126802F04002002A78
:10550000F9D0C2B2014B0C331A8070471C380140ED
:105510009CB057E034210FA8FBF79CF9342102A876
:10552000FBF798F9284890ED000AF2EE040A20EE05
:10553000200ABCEEC00A10EE100A0A21B0FBF1F2FC
:1055400001FB12042346204890ED000ABCEEC00A7D
:1055500010EE102A1DA10FA8FAF7A8FF1F4890ED22
:10556000000AF2EE040A20EE200ABCEEC00A10EE99
:10557000100A0A21B0FBF1F201FB1204234617487E
:1055800090ED000ABCEEC00A10EE102A14A102A889
:10559000FAF78CFF0FA820210B46C822CDE9001096
:1055A00000210846FFF759F902A820210B46C8221E
:1055B000CDE9001028210020FFF74FF96420FBF708
:1055C000A3FE00BFA6E700005485002054656D705F
:1055D0003A20253032642E25303264005885002070
:1055E00048756D693A20253032642E2530326400CA
:1055F00010B5FBF7B3FE002211460448FCF790FCFF
:1056000003490860FBF7C0FE002010BD5956000892
:1056100050850020062809D2DFE800F008030405C1
:10562000060704E003E002E001E000E000BF00BF85
:1056300000BFFEE700BFFEE710B50648007830B9AE
:10564000FBF774FE012802DD0120024908700148C1
:10565000007810BD8C85002010B50446FDF790FE43
:10566000002211460D48FCF75BFC0D490860002242
:1056700011460C48FCF754FC0B4908600022114607
:105680000A48FCF74DFC0A49086000221146094807
:10569000FCF746FC0849086010BD00006D54000886
:1056A0005C85002011550008608500209554000895
:1056B00064850020BD560008688500202DED028B12
:1056C000B2B0C8216846FBF7C5F823E06846FFF78B
:1056D000BDFA11A16846FBF7E5F858B91248006811
:1056E00000F082FC41EC180B53EC182B0FA0FAF7DA
:1056F000D1FE0FE010A16846FBF7D4F850B912486C
:10570000006800F071FC41EC180B53EC182B0FA053
:10571000FAF7C0FEDAE700006765742074656D7003
:1057200065726174757265005485002054454D5052
:105730003A252E32660D00006765742068756D6924
:1057400064697479000000005885002048554D496F
:105750003A252E32660D000010B500290AD00878CF
:10576000002807D005487844FBF79CF8002801D0B2
:10577000002010BD0248784410BD000022F1000056
:105780001AF1000021F00042A2F16052B2F5801F30
:1057900001F0004328BFD2F17F6C0BD95FEA001CF7
:1057A00043EAC20242EB507018BF704728BF20F096
:1057B00001007047B2F5801FBCBF184670474FEA22
:1057C000410C1CF5001F02D2084600F083BC70B5E6
:1057D00000F0CCFA00000089FFF7F6BF4FF0004060
:1057E000A0F580007047000010B591EA030F48BF94
:1057F00083F0004300F11683841A71EB030C05D289
:10580000121943EB0C03001B61EB0C01DFF824E1E0
:105810004FEA1154A4EB135C1EEA430F18BF9EEA33
:10582000445F73D023EA0E03DCF1200E21EA045119
:1058300043F4801332D322FA0CFE10EB0E0023FA4D
:105840000CFE41EB0E01CCF1200E03FA0EFE10EB24
:105850000E0051F10001B1F5801FCCF1200E32D2C3
:1058600001EB045112FA0EF2BDE8104058BF704728
:10587000401C38BF5FEA420218BF7047002814BFBF
:1058800020F0010041F100014FEA410313F5001F30
:1058900038BF7047A1F1C04100F0B6BA012A43EB0E
:1058A0000302ACF1200CDCF11F0E32BF4FF0000EF2
:1058B00023FA0CF310EB030041EB0451B4EB115F3E
:1058C000D0D0A1EB045101F5801149085FEA300006
:1058D00001EB04510ED350F1000038BF12FA0EFE56
:1058E00008D1BDE81040C9E7401C38BF5FEA42025A
:1058F000CAD1C3E7BDE810404FEA410313F5001FCA
:1059000038BF7047A1F1C04100F07EBA9EEA445F03
:1059100008D011EA5E0FBDE8104004BF01F000415D
:1059200000207047BDE8104070B500F01FFA00BFBE
:1059300064FBBE3E0000E0FF2DE9C04130B4DFF85B
:10594000A0C23CEA111418BF3CEA131400F0EC802A
:1059500081EA03051CEA111444EAD57418BF1CEA55
:10596000131500F0C780A4EB05044FF0004545EA8D
:10597000C12145EAC32341EA505143EA525304F19D
:105980007F74994204F500344FEAC0204FEAC222E6
:1059900008BF904200F09C804FEA13650FF240165A
:1059A000765D4FEA134506FB05F7C7F1807706FBE6
:1059B00007F74FEAD737A7FB03687642C8F5803868
:1059C000A7FB06CE38BFA8F1010807FB08E64FF099
:1059D000000EA6FB028CE6FB03CEDCF1000CCEF140
:1059E000004E38BFAEF1010EA6FB0C584FF0000779
:1059F0004FF00005E6FB0E87A1FB08C6A0FB07CE13
:105A000016EB0E0645F10005E1FB076515F1E04ECA
:105A10007EBFA4F580345FEA46066D4116F180072B
:105A200045F100054FEA17274FEA066647EA056782
:105A3000A6F1DE46B6F1805F4FEA15251FD938463C
:105A400024F0010C05EBC471BCF1FE6F01EB0C11ED
:105A500002D8F0BCBDE8008124425CBF01F5801E85
:105A60009EEAC47F02D4F0BCBDE80081244238D451
:105A7000F0BCA1F1C041BDE8004100F0C5B94FEA5A
:105A8000D22242EA43524FEAD323A7FB02864FEACF
:105A9000D02040EA415007FB03661EEA0E0F4FEA92
:105AA000D12105FB026658BFA6EB0056B6EB0056A7
:105AB0004FEA520E4EEAC37E18EB0E0E56EB530E13
:105AC000BDD518EB02085E417F1C55F10005B6E715
:105AD0004FF480154FF000074FF000064FF000081C
